{"abi":[{"type":"function","name":"click","inputs":[{"name":"_userAddress","type":"address","internalType":"address"}],"outputs":[],"stateMutability":"nonpayable"},{"type":"function","name":"getLeaderboard","inputs":[],"outputs":[{"name":"topPlayers","type":"address[]","internalType":"address[]"},{"name":"bestScores","type":"uint256[]","internalType":"uint256[]"},{"name":"txCounts","type":"uint256[]","internalType":"uint256[]"}],"stateMutability":"view"},{"type":"function","name":"getRank","inputs":[{"name":"player","type":"address","internalType":"address"}],"outputs":[{"name":"rank","type":"uint256","internalType":"uint256"}],"stateMutability":"view"},{"type":"function","name":"leaderboard","inputs":[{"name":"","type":"uint256","internalType":"uint256"}],"outputs":[{"name":"","type":"address","internalType":"address"}],"stateMutability":"view"},{"type":"function","name":"players","inputs":[{"name":"","type":"address","internalType":"address"}],"outputs":[{"name":"bestScore","type":"uint256","internalType":"uint256"},{"name":"lastScore","type":"uint256","internalType":"uint256"},{"name":"txCount","type":"uint256","internalType":"uint256"}],"stateMutability":"view"},{"type":"function","name":"playersList","inputs":[{"name":"","type":"uint256","internalType":"uint256"}],"outputs":[{"name":"","type":"address","internalType":"address"}],"stateMutability":"view"},{"type":"function","name":"registered","inputs":[{"name":"","type":"address","internalType":"address"}],"outputs":[{"name":"","type":"bool","internalType":"bool"}],"stateMutability":"view"},{"type":"function","name":"submitScore","inputs":[{"name":"score","type":"uint256","internalType":"uint256"},{"name":"_userAddress","type":"address","internalType":"address"}],"outputs":[],"stateMutability":"nonpayable"},{"type":"event","name":"Click","inputs":[{"name":"player","type":"address","indexed":true,"internalType":"address"},{"name":"newTxCount","type":"uint256","indexed":false,"internalType":"uint256"}],"anonymous":false},{"type":"event","name":"ScoreSubmitted","inputs":[{"name":"player","type":"address","indexed":true,"internalType":"address"},{"name":"lastScore","type":"uint256","indexed":false,"internalType":"uint256"},{"name":"bestScore","type":"uint256","indexed":false,"internalType":"uint256"}],"anonymous":false}],"bytecode":{"object":"0x6080604052348015600e575f5ffd5b5061147d8061001c5f395ff3fe608060405234801561000f575f5ffd5b5060043610610086575f3560e01c8063b2dd5c0711610059578063b2dd5c0714610126578063bf36839914610156578063e2eb41ff14610186578063f52c4c5c146101b857610086565b806344e51ae41461008a578063548c0ef4146100a65780636d763a6e146100d65780637319b43e146100f6575b5f5ffd5b6100a4600480360381019061009f9190610fe8565b6101d4565b005b6100c060048036038101906100bb9190610fe8565b6103bd565b6040516100cd919061102b565b60405180910390f35b6100de6104cf565b6040516100ed939291906111b2565b60405180910390f35b610110600480360381019061010b9190611226565b61079b565b60405161011d9190611260565b60405180910390f35b610140600480360381019061013b9190610fe8565b6107d6565b60405161014d9190611293565b60405180910390f35b610170600480360381019061016b9190611226565b6107f3565b60405161017d9190611260565b60405180910390f35b6101a0600480360381019061019b9190610fe8565b61082e565b6040516101af939291906112ac565b60405180910390f35b6101d260048036038101906101cd91906112e1565b610853565b005b60015f8273ffffffffffffffffffffffffffffffffffffffff1673ffffffffffffffffffffffffffffffffffffffff1681526020019081526020015f205f9054906101000a900460ff166102d7576001805f8373ffffffffffffffffffffffffffffffffffffffff1673ffffffffffffffffffffffffffffffffffffffff1681526020019081526020015f205f6101000a81548160ff021916908315150217905550600281908060018154018082558091505060019003905f5260205f20015f9091909190916101000a81548173ffffffffffffffffffffffffffffffffffffffff021916908373ffffffffffffffffffffffffffffffffffffffff1602179055505b60015f5f8373ffffffffffffffffffffffffffffffffffffffff1673ffffffffffffffffffffffffffffffffffffffff1681526020019081526020015f206002015f828254610326919061134c565b925050819055508073ffffffffffffffffffffffffffffffffffffffff167f9cb0084f66100232b6cdcee6915499fbfb0cd080317c9488bd71880f8cdb91dc5f5f8473ffffffffffffffffffffffffffffffffffffffff1673ffffffffffffffffffffffffffffffffffffffff1681526020019081526020015f20600201546040516103b2919061102b565b60405180910390a250565b5f5f5f5f8473ffffffffffffffffffffffffffffffffffffffff1673ffffffffffffffffffffffffffffffffffffffff1681526020019081526020015f205f015490505f5f90505f60028054905090505f5f90505b818110156104b757835f5f600284815481106104315761043061137f565b5b905f5260205f20015f9054906101000a900473ffffffffffffffffffffffffffffffffffffffff1673ffffffffffffffffffffffffffffffffffffffff1673ffffffffffffffffffffffffffffffffffffffff1681526020019081526020015f205f015411156104aa5782806104a6906113ac565b9350505b8080600101915050610412565b506001826104c5919061134c565b9350505050919050565b60608060605f60038054905090508067ffffffffffffffff8111156104f7576104f66113f3565b5b6040519080825280602002602001820160405280156105255781602001602082028036833780820191505090505b5093508067ffffffffffffffff811115610542576105416113f3565b5b6040519080825280602002602001820160405280156105705781602001602082028036833780820191505090505b5092508067ffffffffffffffff81111561058d5761058c6113f3565b5b6040519080825280602002602001820160405280156105bb5781602001602082028036833780820191505090505b5091505f5f90505b8181101561079457600381815481106105df576105de61137f565b5b905f5260205f20015f9054906101000a900473ffffffffffffffffffffffffffffffffffffffff1685828151811061061a5761061961137f565b5b602002602001019073ffffffffffffffffffffffffffffffffffffffff16908173ffffffffffffffffffffffffffffffffffffffff16815250505f5f6003838154811061066a5761066961137f565b5b905f5260205f20015f9054906101000a900473ffffffffffffffffffffffffffffffffffffffff1673ffffffffffffffffffffffffffffffffffffffff1673ffffffffffffffffffffffffffffffffffffffff1681526020019081526020015f205f01548482815181106106e1576106e061137f565b5b6020026020010181815250505f5f600383815481106107035761070261137f565b5b905f5260205f20015f9054906101000a900473ffffffffffffffffffffffffffffffffffffffff1673ffffffffffffffffffffffffffffffffffffffff1673ffffffffffffffffffffffffffffffffffffffff1681526020019081526020015f206002015483828151811061077b5761077a61137f565b5b60200260200101818152505080806001019150506105c3565b5050909192565b600281815481106107aa575f80fd5b905f5260205f20015f915054906101000a900473ffffffffffffffffffffffffffffffffffffffff1681565b6001602052805f5260405f205f915054906101000a900460ff1681565b60038181548110610802575f80fd5b905f5260205f20015f915054906101000a900473ffffffffffffffffffffffffffffffffffffffff1681565b5f602052805f5260405f205f91509050805f0154908060010154908060020154905083565b815f5f8373ffffffffffffffffffffffffffffffffffffffff1673ffffffffffffffffffffffffffffffffffffffff1681526020019081526020015f20600101819055505f5f8273ffffffffffffffffffffffffffffffffffffffff1673ffffffffffffffffffffffffffffffffffffffff1681526020019081526020015f205f015482111561092157815f5f8373ffffffffffffffffffffffffffffffffffffffff1673ffffffffffffffffffffffffffffffffffffffff1681526020019081526020015f205f01819055505b61092a816109bc565b8073ffffffffffffffffffffffffffffffffffffffff167fb7f20d0949b6a8bc59d005af4a52f7ff5d0cfcde9056fa556adb0e4b24dcb6d2835f5f8573ffffffffffffffffffffffffffffffffffffffff1673ffffffffffffffffffffffffffffffffffffffff1681526020019081526020015f205f01546040516109b0929190611420565b60405180910390a25050565b5f5f90505f60038054905090505f5f90505b81811015610a5a578373ffffffffffffffffffffffffffffffffffffffff1660038281548110610a0157610a0061137f565b5b905f5260205f20015f9054906101000a900473ffffffffffffffffffffffffffffffffffffffff1673ffffffffffffffffffffffffffffffffffffffff1603610a4d5760019250610a5a565b80806001019150506109ce565b5081610d11576014811015610ace57600383908060018154018082558091505060019003905f5260205f20015f9091909190916101000a81548173ffffffffffffffffffffffffffffffffffffffff021916908373ffffffffffffffffffffffffffffffffffffffff160217905550610d10565b5f5f5f60035f81548110610ae557610ae461137f565b5b905f5260205f20015f9054906101000a900473ffffffffffffffffffffffffffffffffffffffff1673ffffffffffffffffffffffffffffffffffffffff1673ffffffffffffffffffffffffffffffffffffffff1681526020019081526020015f205f015490505f5f90505f600190505b83811015610c6b57825f5f60038481548110610b7457610b7361137f565b5b905f5260205f20015f9054906101000a900473ffffffffffffffffffffffffffffffffffffffff1673ffffffffffffffffffffffffffffffffffffffff1673ffffffffffffffffffffffffffffffffffffffff1681526020019081526020015f205f01541015610c5e575f5f60038381548110610bf457610bf361137f565b5b905f5260205f20015f9054906101000a900473ffffffffffffffffffffffffffffffffffffffff1673ffffffffffffffffffffffffffffffffffffffff1673ffffffffffffffffffffffffffffffffffffffff1681526020019081526020015f205f015492508091505b8080600101915050610b55565b50815f5f8773ffffffffffffffffffffffffffffffffffffffff1673ffffffffffffffffffffffffffffffffffffffff1681526020019081526020015f205f01541115610d0d578460038281548110610cc757610cc661137f565b5b905f5260205f20015f6101000a81548173ffffffffffffffffffffffffffffffffffffffff021916908373ffffffffffffffffffffffffffffffffffffffff1602179055505b50505b5b60038054905090505f5f90505b81811015610f84575f600182610d34919061134c565b90505b82811015610f76575f5f60038481548110610d5557610d5461137f565b5b905f5260205f20015f9054906101000a900473ffffffffffffffffffffffffffffffffffffffff1673ffffffffffffffffffffffffffffffffffffffff1673ffffffffffffffffffffffffffffffffffffffff1681526020019081526020015f205f01545f5f60038481548110610dcf57610dce61137f565b5b905f5260205f20015f9054906101000a900473ffffffffffffffffffffffffffffffffffffffff1673ffffffffffffffffffffffffffffffffffffffff1673ffffffffffffffffffffffffffffffffffffffff1681526020019081526020015f205f01541115610f69575f60038381548110610e4e57610e4d61137f565b5b905f5260205f20015f9054906101000a900473ffffffffffffffffffffffffffffffffffffffff16905060038281548110610e8c57610e8b61137f565b5b905f5260205f20015f9054906101000a900473ffffffffffffffffffffffffffffffffffffffff1660038481548110610ec857610ec761137f565b5b905f5260205f20015f6101000a81548173ffffffffffffffffffffffffffffffffffffffff021916908373ffffffffffffffffffffffffffffffffffffffff1602179055508060038381548110610f2257610f2161137f565b5b905f5260205f20015f6101000a81548173ffffffffffffffffffffffffffffffffffffffff021916908373ffffffffffffffffffffffffffffffffffffffff160217905550505b8080600101915050610d37565b508080600101915050610d1e565b50505050565b5f5ffd5b5f73ffffffffffffffffffffffffffffffffffffffff82169050919050565b5f610fb782610f8e565b9050919050565b610fc781610fad565b8114610fd1575f5ffd5b50565b5f81359050610fe281610fbe565b92915050565b5f60208284031215610ffd57610ffc610f8a565b5b5f61100a84828501610fd4565b91505092915050565b5f819050919050565b61102581611013565b82525050565b5f60208201905061103e5f83018461101c565b92915050565b5f81519050919050565b5f82825260208201905092915050565b5f819050602082019050919050565b61107681610fad565b82525050565b5f611087838361106d565b60208301905092915050565b5f602082019050919050565b5f6110a982611044565b6110b3818561104e565b93506110be8361105e565b805f5b838110156110ee5781516110d5888261107c565b97506110e083611093565b9250506001810190506110c1565b5085935050505092915050565b5f81519050919050565b5f82825260208201905092915050565b5f819050602082019050919050565b61112d81611013565b82525050565b5f61113e8383611124565b60208301905092915050565b5f602082019050919050565b5f611160826110fb565b61116a8185611105565b935061117583611115565b805f5b838110156111a557815161118c8882611133565b97506111978361114a565b925050600181019050611178565b5085935050505092915050565b5f6060820190508181035f8301526111ca818661109f565b905081810360208301526111de8185611156565b905081810360408301526111f28184611156565b9050949350505050565b61120581611013565b811461120f575f5ffd5b50565b5f81359050611220816111fc565b92915050565b5f6020828403121561123b5761123a610f8a565b5b5f61124884828501611212565b91505092915050565b61125a81610fad565b82525050565b5f6020820190506112735f830184611251565b92915050565b5f8115159050919050565b61128d81611279565b82525050565b5f6020820190506112a65f830184611284565b92915050565b5f6060820190506112bf5f83018661101c565b6112cc602083018561101c565b6112d9604083018461101c565b949350505050565b5f5f604083850312156112f7576112f6610f8a565b5b5f61130485828601611212565b925050602061131585828601610fd4565b9150509250929050565b7f4e487b71000000000000000000000000000000000000000000000000000000005f52601160045260245ffd5b5f61135682611013565b915061136183611013565b92508282019050808211156113795761137861131f565b5b92915050565b7f4e487b71000000000000000000000000000000000000000000000000000000005f52603260045260245ffd5b5f6113b682611013565b91507fffffffffffffffffffffffffffffffffffffffffffffffffffffffffffffffff82036113e8576113e761131f565b5b600182019050919050565b7f4e487b71000000000000000000000000000000000000000000000000000000005f52604160045260245ffd5b5f6040820190506114335f83018561101c565b611440602083018461101c565b939250505056fea2646970667358221220ee359247c927fafc4b7b4187e7fb4f2e112dcf3f4a363a88ae3345501da7e81d64736f6c634300081c0033","linkReferences":{}},"methodIdentifiers":{"click(address)":"44e51ae4","getLeaderboard()":"6d763a6e","getRank(address)":"548c0ef4","leaderboard(uint256)":"bf368399","players(address)":"e2eb41ff","playersList(uint256)":"7319b43e","registered(address)":"b2dd5c07","submitScore(uint256,address)":"f52c4c5c"},"id":0}